{
  "_format": "hh-sol-artifact-1",
  "contractName": "Legitize",
  "sourceName": "nft/contracts/Legitize.sol",
  "abi": [
    {
      "inputs": [
        {
          "internalType": "uint256",
          "name": "_feePercent",
          "type": "uint256"
        }
      ],
      "stateMutability": "nonpayable",
      "type": "constructor"
    },
    {
      "anonymous": false,
      "inputs": [
        {
          "indexed": false,
          "internalType": "uint256",
          "name": "itemId",
          "type": "uint256"
        },
        {
          "indexed": true,
          "internalType": "address",
          "name": "nft",
          "type": "address"
        },
        {
          "indexed": false,
          "internalType": "uint256",
          "name": "tokenId",
          "type": "uint256"
        },
        {
          "indexed": false,
          "internalType": "uint256",
          "name": "price",
          "type": "uint256"
        },
        {
          "indexed": true,
          "internalType": "address",
          "name": "seller",
          "type": "address"
        },
        {
          "indexed": true,
          "internalType": "address",
          "name": "buyer",
          "type": "address"
        }
      ],
      "name": "Bought",
      "type": "event"
    },
    {
      "anonymous": false,
      "inputs": [
        {
          "indexed": false,
          "internalType": "uint256",
          "name": "itemId",
          "type": "uint256"
        },
        {
          "indexed": true,
          "internalType": "address",
          "name": "nft",
          "type": "address"
        },
        {
          "indexed": false,
          "internalType": "uint256",
          "name": "tokenId",
          "type": "uint256"
        },
        {
          "indexed": false,
          "internalType": "uint256",
          "name": "price",
          "type": "uint256"
        },
        {
          "indexed": true,
          "internalType": "address",
          "name": "seller",
          "type": "address"
        }
      ],
      "name": "Offered",
      "type": "event"
    },
    {
      "inputs": [
        {
          "internalType": "uint256",
          "name": "",
          "type": "uint256"
        }
      ],
      "name": "Items",
      "outputs": [
        {
          "internalType": "uint256",
          "name": "itemId",
          "type": "uint256"
        },
        {
          "internalType": "contract IERC721",
          "name": "nft",
          "type": "address"
        },
        {
          "internalType": "uint256",
          "name": "tokenId",
          "type": "uint256"
        },
        {
          "internalType": "uint256",
          "name": "price",
          "type": "uint256"
        },
        {
          "internalType": "address payable",
          "name": "seller",
          "type": "address"
        },
        {
          "internalType": "bool",
          "name": "sold",
          "type": "bool"
        }
      ],
      "stateMutability": "view",
      "type": "function"
    },
    {
      "inputs": [
        {
          "internalType": "uint256",
          "name": "_itemId",
          "type": "uint256"
        }
      ],
      "name": "buyItem",
      "outputs": [],
      "stateMutability": "payable",
      "type": "function"
    },
    {
      "inputs": [
        {
          "internalType": "uint256",
          "name": "_itemId",
          "type": "uint256"
        },
        {
          "internalType": "uint256",
          "name": "_price",
          "type": "uint256"
        }
      ],
      "name": "chagePrice",
      "outputs": [],
      "stateMutability": "nonpayable",
      "type": "function"
    },
    {
      "inputs": [],
      "name": "feeAccount",
      "outputs": [
        {
          "internalType": "address payable",
          "name": "",
          "type": "address"
        }
      ],
      "stateMutability": "view",
      "type": "function"
    },
    {
      "inputs": [],
      "name": "feePercent",
      "outputs": [
        {
          "internalType": "uint256",
          "name": "",
          "type": "uint256"
        }
      ],
      "stateMutability": "view",
      "type": "function"
    },
    {
      "inputs": [
        {
          "internalType": "uint256",
          "name": "_itemId",
          "type": "uint256"
        }
      ],
      "name": "getTotalPrice",
      "outputs": [
        {
          "internalType": "uint256",
          "name": "",
          "type": "uint256"
        }
      ],
      "stateMutability": "view",
      "type": "function"
    },
    {
      "inputs": [],
      "name": "itemCount",
      "outputs": [
        {
          "internalType": "uint256",
          "name": "",
          "type": "uint256"
        }
      ],
      "stateMutability": "view",
      "type": "function"
    },
    {
      "inputs": [
        {
          "internalType": "contract IERC721",
          "name": "_nft",
          "type": "address"
        },
        {
          "internalType": "uint256",
          "name": "_tokenId",
          "type": "uint256"
        },
        {
          "internalType": "uint256",
          "name": "_price",
          "type": "uint256"
        }
      ],
      "name": "listItem",
      "outputs": [],
      "stateMutability": "nonpayable",
      "type": "function"
    }
  ],
  "bytecode": "0x60c060405234801561001057600080fd5b5060405161134038038061134083398181016040528101906100329190610094565b60016000819055503373ffffffffffffffffffffffffffffffffffffffff1660808173ffffffffffffffffffffffffffffffffffffffff1660601b815250508060a08181525050506100de565b60008151905061008e816100c7565b92915050565b6000602082840312156100a657600080fd5b60006100b48482850161007f565b91505092915050565b6000819050919050565b6100d0816100bd565b81146100db57600080fd5b50565b60805160601c60a05161122c610114600039600081816102a30152610557015260008181610279015261080a015261122c6000f3fe60806040526004361061007b5760003560e01c806389bfd38f1161004e57806389bfd38f14610143578063ca7dd3751461016c578063e5ac40b3146101a9578063e7fb74c7146101d25761007b565b806317b47cc41461008057806365e17c9d146100c25780636bfb0d01146100ed5780637fd6f15c14610118575b600080fd5b34801561008c57600080fd5b506100a760048036038101906100a29190610ae2565b6101ee565b6040516100b996959493929190610d91565b60405180910390f35b3480156100ce57600080fd5b506100d7610277565b6040516100e49190610c64565b60405180910390f35b3480156100f957600080fd5b5061010261029b565b60405161010f9190610d76565b60405180910390f35b34801561012457600080fd5b5061012d6102a1565b60405161013a9190610d76565b60405180910390f35b34801561014f57600080fd5b5061016a60048036038101906101659190610a93565b6102c5565b005b34801561017857600080fd5b50610193600480360381019061018e9190610ae2565b610551565b6040516101a09190610d76565b60405180910390f35b3480156101b557600080fd5b506101d060048036038101906101cb9190610b0b565b6105b4565b005b6101ec60048036038101906101e79190610ae2565b610687565b005b60026020528060005260406000206000915090508060000154908060010160009054906101000a900473ffffffffffffffffffffffffffffffffffffffff16908060020154908060030154908060040160009054906101000a900473ffffffffffffffffffffffffffffffffffffffff16908060040160149054906101000a900460ff16905086565b7f000000000000000000000000000000000000000000000000000000000000000081565b60015481565b7f000000000000000000000000000000000000000000000000000000000000000081565b6102cd610a0f565b60008111610310576040517f08c379a000000000000000000000000000000000000000000000000000000000815260040161030790610cb6565b60405180910390fd5b6001600081548092919061032390610fdf565b91905055508273ffffffffffffffffffffffffffffffffffffffff166323b872dd3330856040518463ffffffff1660e01b815260040161036593929190610c7f565b600060405180830381600087803b15801561037f57600080fd5b505af1158015610393573d6000803e3d6000fd5b505050506040518060c0016040528060015481526020018473ffffffffffffffffffffffffffffffffffffffff1681526020018381526020018281526020013373ffffffffffffffffffffffffffffffffffffffff168152602001600015158152506002600060015481526020019081526020016000206000820151816000015560208201518160010160006101000a81548173ffffffffffffffffffffffffffffffffffffffff021916908373ffffffffffffffffffffffffffffffffffffffff160217905550604082015181600201556060820151816003015560808201518160040160006101000a81548173ffffffffffffffffffffffffffffffffffffffff021916908373ffffffffffffffffffffffffffffffffffffffff16021790555060a08201518160040160146101000a81548160ff0219169083151502179055509050503373ffffffffffffffffffffffffffffffffffffffff168373ffffffffffffffffffffffffffffffffffffffff167f655a0cf9c8db81512be9a76dc1c5ae5380b8816ce6ad659cd61b715e2999d59a600154858560405161053c93929190610df2565b60405180910390a361054c610a5f565b505050565b600060647f000000000000000000000000000000000000000000000000000000000000000060646105829190610e3a565b60026000858152602001908152602001600020600301546105a39190610ec1565b6105ad9190610e90565b9050919050565b6105bc610a0f565b6002600083815260200190815260200160002060040160009054906101000a900473ffffffffffffffffffffffffffffffffffffffff1673ffffffffffffffffffffffffffffffffffffffff163373ffffffffffffffffffffffffffffffffffffffff1614610660576040517f08c379a000000000000000000000000000000000000000000000000000000000815260040161065790610cd6565b60405180910390fd5b806002600084815260200190815260200160002060030181905550610683610a5f565b5050565b61068f610a0f565b600061069a82610551565b905060006002600084815260200190815260200160002090506000831180156106c557506001548311155b610704576040517f08c379a00000000000000000000000000000000000000000000000000000000081526004016106fb90610d16565b60405180910390fd5b81341015610747576040517f08c379a000000000000000000000000000000000000000000000000000000000815260040161073e90610cf6565b60405180910390fd5b8060040160149054906101000a900460ff1615610799576040517f08c379a000000000000000000000000000000000000000000000000000000000815260040161079090610d56565b60405180910390fd5b8060040160009054906101000a900473ffffffffffffffffffffffffffffffffffffffff1673ffffffffffffffffffffffffffffffffffffffff166108fc82600301549081150290604051600060405180830381858888f19350505050158015610807573d6000803e3d6000fd5b507f000000000000000000000000000000000000000000000000000000000000000073ffffffffffffffffffffffffffffffffffffffff166108fc8260030154846108529190610f1b565b9081150290604051600060405180830381858888f1935050505015801561087d573d6000803e3d6000fd5b5060018160040160146101000a81548160ff0219169083151502179055508060010160009054906101000a900473ffffffffffffffffffffffffffffffffffffffff1673ffffffffffffffffffffffffffffffffffffffff166323b872dd303384600201546040518463ffffffff1660e01b815260040161090093929190610c7f565b600060405180830381600087803b15801561091a57600080fd5b505af115801561092e573d6000803e3d6000fd5b505050503373ffffffffffffffffffffffffffffffffffffffff168160040160009054906101000a900473ffffffffffffffffffffffffffffffffffffffff1673ffffffffffffffffffffffffffffffffffffffff168260010160009054906101000a900473ffffffffffffffffffffffffffffffffffffffff1673ffffffffffffffffffffffffffffffffffffffff167f8b4c9c8a607d67b321582dd8461041b1dc2ceeca70c8b7f37f8e02095cf2e76d86856002015486600301546040516109fa93929190610df2565b60405180910390a45050610a0c610a5f565b50565b60026000541415610a55576040517f08c379a0000000000000000000000000000000000000000000000000000000008152600401610a4c90610d36565b60405180910390fd5b6002600081905550565b6001600081905550565b600081359050610a78816111c8565b92915050565b600081359050610a8d816111df565b92915050565b600080600060608486031215610aa857600080fd5b6000610ab686828701610a69565b9350506020610ac786828701610a7e565b9250506040610ad886828701610a7e565b9150509250925092565b600060208284031215610af457600080fd5b6000610b0284828501610a7e565b91505092915050565b60008060408385031215610b1e57600080fd5b6000610b2c85828601610a7e565b9250506020610b3d85828601610a7e565b9150509250929050565b610b5081610f61565b82525050565b610b5f81610f4f565b82525050565b610b6e81610f73565b82525050565b610b7d81610fbb565b82525050565b6000610b90601f83610e29565b9150610b9b82611086565b602082019050919050565b6000610bb3602483610e29565b9150610bbe826110af565b604082019050919050565b6000610bd6603383610e29565b9150610be1826110fe565b604082019050919050565b6000610bf9601283610e29565b9150610c048261114d565b602082019050919050565b6000610c1c601f83610e29565b9150610c2782611176565b602082019050919050565b6000610c3f601183610e29565b9150610c4a8261119f565b602082019050919050565b610c5e81610fb1565b82525050565b6000602082019050610c796000830184610b47565b92915050565b6000606082019050610c946000830186610b56565b610ca16020830185610b56565b610cae6040830184610c55565b949350505050565b60006020820190508181036000830152610ccf81610b83565b9050919050565b60006020820190508181036000830152610cef81610ba6565b9050919050565b60006020820190508181036000830152610d0f81610bc9565b9050919050565b60006020820190508181036000830152610d2f81610bec565b9050919050565b60006020820190508181036000830152610d4f81610c0f565b9050919050565b60006020820190508181036000830152610d6f81610c32565b9050919050565b6000602082019050610d8b6000830184610c55565b92915050565b600060c082019050610da66000830189610c55565b610db36020830188610b74565b610dc06040830187610c55565b610dcd6060830186610c55565b610dda6080830185610b47565b610de760a0830184610b65565b979650505050505050565b6000606082019050610e076000830186610c55565b610e146020830185610c55565b610e216040830184610c55565b949350505050565b600082825260208201905092915050565b6000610e4582610fb1565b9150610e5083610fb1565b9250827fffffffffffffffffffffffffffffffffffffffffffffffffffffffffffffffff03821115610e8557610e84611028565b5b828201905092915050565b6000610e9b82610fb1565b9150610ea683610fb1565b925082610eb657610eb5611057565b5b828204905092915050565b6000610ecc82610fb1565b9150610ed783610fb1565b9250817fffffffffffffffffffffffffffffffffffffffffffffffffffffffffffffffff0483118215151615610f1057610f0f611028565b5b828202905092915050565b6000610f2682610fb1565b9150610f3183610fb1565b925082821015610f4457610f43611028565b5b828203905092915050565b6000610f5a82610f91565b9050919050565b6000610f6c82610f91565b9050919050565b60008115159050919050565b6000610f8a82610f4f565b9050919050565b600073ffffffffffffffffffffffffffffffffffffffff82169050919050565b6000819050919050565b6000610fc682610fcd565b9050919050565b6000610fd882610f91565b9050919050565b6000610fea82610fb1565b91507fffffffffffffffffffffffffffffffffffffffffffffffffffffffffffffffff82141561101d5761101c611028565b5b600182019050919050565b7f4e487b7100000000000000000000000000000000000000000000000000000000600052601160045260246000fd5b7f4e487b7100000000000000000000000000000000000000000000000000000000600052601260045260246000fd5b7f5072696365206d7573742062652067726561746572207468616e205a65726f00600082015250565b7f4f6e6c79207468652073656c6c65722063616e206368616e676520746865205060008201527f7269636500000000000000000000000000000000000000000000000000000000602082015250565b7f4e6f7420656e6f75676820657468657220746f20636f766572206974656d207060008201527f7269636520616e64206d61726b65742066656500000000000000000000000000602082015250565b7f4974656d20646f65736e27742065786973740000000000000000000000000000600082015250565b7f5265656e7472616e637947756172643a207265656e7472616e742063616c6c00600082015250565b7f4974656d20616c726561647920736f6c64000000000000000000000000000000600082015250565b6111d181610f7f565b81146111dc57600080fd5b50565b6111e881610fb1565b81146111f357600080fd5b5056fea2646970667358221220e468bc3b52f5d2371854eef4e0cd8a602fa65d0c4a2a5a3d6fcb429e228e79cd64736f6c63430008040033",
  "linkReferences": {},
  "deployedLinkReferences": {}
}