{
  "_format": "hh-sol-artifact-1",
  "contractName": "Legitize",
  "sourceName": "nft/contracts/Legitize.sol",
  "abi": [
    {
      "inputs": [
        {
          "internalType": "uint256",
          "name": "_feePercent",
          "type": "uint256"
        }
      ],
      "stateMutability": "nonpayable",
      "type": "constructor"
    },
    {
      "anonymous": false,
      "inputs": [
        {
          "indexed": false,
          "internalType": "uint256",
          "name": "itemId",
          "type": "uint256"
        },
        {
          "indexed": true,
          "internalType": "address",
          "name": "nft",
          "type": "address"
        },
        {
          "indexed": false,
          "internalType": "uint256",
          "name": "tokenId",
          "type": "uint256"
        },
        {
          "indexed": false,
          "internalType": "uint256",
          "name": "price",
          "type": "uint256"
        },
        {
          "indexed": true,
          "internalType": "address",
          "name": "seller",
          "type": "address"
        },
        {
          "indexed": true,
          "internalType": "address",
          "name": "buyer",
          "type": "address"
        }
      ],
      "name": "Bought",
      "type": "event"
    },
    {
      "anonymous": false,
      "inputs": [
        {
          "indexed": false,
          "internalType": "uint256",
          "name": "itemId",
          "type": "uint256"
        },
        {
          "indexed": true,
          "internalType": "address",
          "name": "nft",
          "type": "address"
        },
        {
          "indexed": false,
          "internalType": "uint256",
          "name": "tokenId",
          "type": "uint256"
        },
        {
          "indexed": false,
          "internalType": "uint256",
          "name": "price",
          "type": "uint256"
        },
        {
          "indexed": true,
          "internalType": "address",
          "name": "seller",
          "type": "address"
        }
      ],
      "name": "Offered",
      "type": "event"
    },
    {
      "inputs": [
        {
          "internalType": "uint256",
          "name": "",
          "type": "uint256"
        }
      ],
      "name": "Items",
      "outputs": [
        {
          "internalType": "uint256",
          "name": "itemId",
          "type": "uint256"
        },
        {
          "internalType": "contract IERC721",
          "name": "nft",
          "type": "address"
        },
        {
          "internalType": "uint256",
          "name": "tokenId",
          "type": "uint256"
        },
        {
          "internalType": "uint256",
          "name": "price",
          "type": "uint256"
        },
        {
          "internalType": "address payable",
          "name": "seller",
          "type": "address"
        },
        {
          "internalType": "bool",
          "name": "sold",
          "type": "bool"
        }
      ],
      "stateMutability": "view",
      "type": "function"
    },
    {
      "inputs": [
        {
          "internalType": "uint256",
          "name": "_itemId",
          "type": "uint256"
        }
      ],
      "name": "buyItem",
      "outputs": [],
      "stateMutability": "payable",
      "type": "function"
    },
    {
      "inputs": [
        {
          "internalType": "uint256",
          "name": "_itemId",
          "type": "uint256"
        }
      ],
      "name": "buyToClose",
      "outputs": [],
      "stateMutability": "payable",
      "type": "function"
    },
    {
      "inputs": [
        {
          "internalType": "uint256",
          "name": "_itemId",
          "type": "uint256"
        },
        {
          "internalType": "uint256",
          "name": "_price",
          "type": "uint256"
        }
      ],
      "name": "chagePrice",
      "outputs": [],
      "stateMutability": "nonpayable",
      "type": "function"
    },
    {
      "inputs": [],
      "name": "feeAccount",
      "outputs": [
        {
          "internalType": "address payable",
          "name": "",
          "type": "address"
        }
      ],
      "stateMutability": "view",
      "type": "function"
    },
    {
      "inputs": [],
      "name": "feePercent",
      "outputs": [
        {
          "internalType": "uint256",
          "name": "",
          "type": "uint256"
        }
      ],
      "stateMutability": "view",
      "type": "function"
    },
    {
      "inputs": [
        {
          "internalType": "uint256",
          "name": "_itemId",
          "type": "uint256"
        }
      ],
      "name": "getTotalPrice",
      "outputs": [
        {
          "internalType": "uint256",
          "name": "",
          "type": "uint256"
        }
      ],
      "stateMutability": "view",
      "type": "function"
    },
    {
      "inputs": [],
      "name": "itemCount",
      "outputs": [
        {
          "internalType": "uint256",
          "name": "",
          "type": "uint256"
        }
      ],
      "stateMutability": "view",
      "type": "function"
    },
    {
      "inputs": [
        {
          "internalType": "contract IERC721",
          "name": "_nft",
          "type": "address"
        },
        {
          "internalType": "uint256",
          "name": "_tokenId",
          "type": "uint256"
        },
        {
          "internalType": "uint256",
          "name": "_price",
          "type": "uint256"
        }
      ],
      "name": "listItem",
      "outputs": [],
      "stateMutability": "nonpayable",
      "type": "function"
    }
  ],
  "bytecode": "0x60c06040523480156200001157600080fd5b506040516200197c3803806200197c83398181016040528101906200003791906200009c565b60016000819055503373ffffffffffffffffffffffffffffffffffffffff1660808173ffffffffffffffffffffffffffffffffffffffff1660601b815250508060a0818152505050620000ec565b6000815190506200009681620000d2565b92915050565b600060208284031215620000af57600080fd5b6000620000bf8482850162000085565b91505092915050565b6000819050919050565b620000dd81620000c8565b8114620000e957600080fd5b50565b60805160601c60a0516118526200012a6000396000818161071c0152610a160152600081816104f6015281816106f20152610d8c01526118526000f3fe6080604052600436106100865760003560e01c80637fd6f15c116100595780637fd6f15c1461013f57806389bfd38f1461016a578063ca7dd37514610193578063e5ac40b3146101d0578063e7fb74c7146101f957610086565b806317b47cc41461008b5780635104bc7f146100cd57806365e17c9d146100e95780636bfb0d0114610114575b600080fd5b34801561009757600080fd5b506100b260048036038101906100ad919061100a565b610215565b6040516100c49695949392919061133f565b60405180910390f35b6100e760048036038101906100e2919061100a565b61029e565b005b3480156100f557600080fd5b506100fe6106f0565b60405161010b91906111d2565b60405180910390f35b34801561012057600080fd5b50610129610714565b6040516101369190611324565b60405180910390f35b34801561014b57600080fd5b5061015461071a565b6040516101619190611324565b60405180910390f35b34801561017657600080fd5b50610191600480360381019061018c9190610fbb565b61073e565b005b34801561019f57600080fd5b506101ba60048036038101906101b5919061100a565b610a10565b6040516101c79190611324565b60405180910390f35b3480156101dc57600080fd5b506101f760048036038101906101f29190611033565b610a73565b005b610213600480360381019061020e919061100a565b610bc3565b005b60026020528060005260406000206000915090508060000154908060010160009054906101000a900473ffffffffffffffffffffffffffffffffffffffff16908060020154908060030154908060040160009054906101000a900473ffffffffffffffffffffffffffffffffffffffff16908060040160149054906101000a900460ff16905086565b600260005414156102e4576040517f08c379a00000000000000000000000000000000000000000000000000000000081526004016102db906112e4565b60405180910390fd5b600260008190555060008060026000848152602001908152602001600020905060008311801561031657506001548311155b610355576040517f08c379a000000000000000000000000000000000000000000000000000000000815260040161034c906112a4565b60405180910390fd5b8060040160009054906101000a900473ffffffffffffffffffffffffffffffffffffffff1673ffffffffffffffffffffffffffffffffffffffff163373ffffffffffffffffffffffffffffffffffffffff16146103e7576040517f08c379a00000000000000000000000000000000000000000000000000000000081526004016103de906112c4565b60405180910390fd5b8134101561042a576040517f08c379a000000000000000000000000000000000000000000000000000000000815260040161042190611284565b60405180910390fd5b8060040160149054906101000a900460ff161561047c576040517f08c379a000000000000000000000000000000000000000000000000000000000815260040161047390611224565b60405180910390fd5b8181600301819055508060040160009054906101000a900473ffffffffffffffffffffffffffffffffffffffff1673ffffffffffffffffffffffffffffffffffffffff166108fc82600301549081150290604051600060405180830381858888f193505050501580156104f3573d6000803e3d6000fd5b507f000000000000000000000000000000000000000000000000000000000000000073ffffffffffffffffffffffffffffffffffffffff166108fc82600301549081150290604051600060405180830381858888f1935050505015801561055e573d6000803e3d6000fd5b5060018160040160146101000a81548160ff0219169083151502179055508060010160009054906101000a900473ffffffffffffffffffffffffffffffffffffffff1673ffffffffffffffffffffffffffffffffffffffff166323b872dd303384600201546040518463ffffffff1660e01b81526004016105e1939291906111ed565b600060405180830381600087803b1580156105fb57600080fd5b505af115801561060f573d6000803e3d6000fd5b505050503373ffffffffffffffffffffffffffffffffffffffff168160040160009054906101000a900473ffffffffffffffffffffffffffffffffffffffff1673ffffffffffffffffffffffffffffffffffffffff168260010160009054906101000a900473ffffffffffffffffffffffffffffffffffffffff1673ffffffffffffffffffffffffffffffffffffffff167f8b4c9c8a607d67b321582dd8461041b1dc2ceeca70c8b7f37f8e02095cf2e76d86856002015486600301546040516106db939291906113a0565b60405180910390a45050600160008190555050565b7f000000000000000000000000000000000000000000000000000000000000000081565b60015481565b7f000000000000000000000000000000000000000000000000000000000000000081565b60026000541415610784576040517f08c379a000000000000000000000000000000000000000000000000000000000815260040161077b906112e4565b60405180910390fd5b6002600081905550600081116107cf576040517f08c379a00000000000000000000000000000000000000000000000000000000081526004016107c690611244565b60405180910390fd5b600160008154809291906107e29061158d565b91905055508273ffffffffffffffffffffffffffffffffffffffff166323b872dd3330856040518463ffffffff1660e01b8152600401610824939291906111ed565b600060405180830381600087803b15801561083e57600080fd5b505af1158015610852573d6000803e3d6000fd5b505050506040518060c0016040528060015481526020018473ffffffffffffffffffffffffffffffffffffffff1681526020018381526020018281526020013373ffffffffffffffffffffffffffffffffffffffff168152602001600015158152506002600060015481526020019081526020016000206000820151816000015560208201518160010160006101000a81548173ffffffffffffffffffffffffffffffffffffffff021916908373ffffffffffffffffffffffffffffffffffffffff160217905550604082015181600201556060820151816003015560808201518160040160006101000a81548173ffffffffffffffffffffffffffffffffffffffff021916908373ffffffffffffffffffffffffffffffffffffffff16021790555060a08201518160040160146101000a81548160ff0219169083151502179055509050503373ffffffffffffffffffffffffffffffffffffffff168373ffffffffffffffffffffffffffffffffffffffff167f655a0cf9c8db81512be9a76dc1c5ae5380b8816ce6ad659cd61b715e2999d59a60015485856040516109fb939291906113a0565b60405180910390a36001600081905550505050565b600060647f00000000000000000000000000000000000000000000000000000000000000006064610a4191906113e8565b6002600085815260200190815260200160002060030154610a62919061146f565b610a6c919061143e565b9050919050565b60026000541415610ab9576040517f08c379a0000000000000000000000000000000000000000000000000000000008152600401610ab0906112e4565b60405180910390fd5b600260008190555060006002600084815260200190815260200160002090508060040160009054906101000a900473ffffffffffffffffffffffffffffffffffffffff1673ffffffffffffffffffffffffffffffffffffffff163373ffffffffffffffffffffffffffffffffffffffff1614610b6a576040517f08c379a0000000000000000000000000000000000000000000000000000000008152600401610b6190611264565b60405180910390fd5b60008211610bad576040517f08c379a0000000000000000000000000000000000000000000000000000000008152600401610ba490611244565b60405180910390fd5b8181600301819055505060016000819055505050565b60026000541415610c09576040517f08c379a0000000000000000000000000000000000000000000000000000000008152600401610c00906112e4565b60405180910390fd5b60026000819055506000610c1c82610a10565b90506000600260008481526020019081526020016000209050600083118015610c4757506001548311155b610c86576040517f08c379a0000000000000000000000000000000000000000000000000000000008152600401610c7d906112a4565b60405180910390fd5b81341015610cc9576040517f08c379a0000000000000000000000000000000000000000000000000000000008152600401610cc090611284565b60405180910390fd5b8060040160149054906101000a900460ff1615610d1b576040517f08c379a0000000000000000000000000000000000000000000000000000000008152600401610d1290611304565b60405180910390fd5b8060040160009054906101000a900473ffffffffffffffffffffffffffffffffffffffff1673ffffffffffffffffffffffffffffffffffffffff166108fc82600301549081150290604051600060405180830381858888f19350505050158015610d89573d6000803e3d6000fd5b507f000000000000000000000000000000000000000000000000000000000000000073ffffffffffffffffffffffffffffffffffffffff166108fc826003015484610dd491906114c9565b9081150290604051600060405180830381858888f19350505050158015610dff573d6000803e3d6000fd5b5060018160040160146101000a81548160ff0219169083151502179055508060010160009054906101000a900473ffffffffffffffffffffffffffffffffffffffff1673ffffffffffffffffffffffffffffffffffffffff166323b872dd303384600201546040518463ffffffff1660e01b8152600401610e82939291906111ed565b600060405180830381600087803b158015610e9c57600080fd5b505af1158015610eb0573d6000803e3d6000fd5b505050503373ffffffffffffffffffffffffffffffffffffffff168160040160009054906101000a900473ffffffffffffffffffffffffffffffffffffffff1673ffffffffffffffffffffffffffffffffffffffff168260010160009054906101000a900473ffffffffffffffffffffffffffffffffffffffff1673ffffffffffffffffffffffffffffffffffffffff167f8b4c9c8a607d67b321582dd8461041b1dc2ceeca70c8b7f37f8e02095cf2e76d8685600201548660030154604051610f7c939291906113a0565b60405180910390a45050600160008190555050565b600081359050610fa0816117ee565b92915050565b600081359050610fb581611805565b92915050565b600080600060608486031215610fd057600080fd5b6000610fde86828701610f91565b9350506020610fef86828701610fa6565b925050604061100086828701610fa6565b9150509250925092565b60006020828403121561101c57600080fd5b600061102a84828501610fa6565b91505092915050565b6000806040838503121561104657600080fd5b600061105485828601610fa6565b925050602061106585828601610fa6565b9150509250929050565b6110788161150f565b82525050565b611087816114fd565b82525050565b61109681611521565b82525050565b6110a581611569565b82525050565b60006110b8600d836113d7565b91506110c382611634565b602082019050919050565b60006110db601f836113d7565b91506110e68261165d565b602082019050919050565b60006110fe6024836113d7565b915061110982611686565b604082019050919050565b60006111216033836113d7565b915061112c826116d5565b604082019050919050565b60006111446012836113d7565b915061114f82611724565b602082019050919050565b60006111676023836113d7565b91506111728261174d565b604082019050919050565b600061118a601f836113d7565b91506111958261179c565b602082019050919050565b60006111ad6011836113d7565b91506111b8826117c5565b602082019050919050565b6111cc8161155f565b82525050565b60006020820190506111e7600083018461106f565b92915050565b6000606082019050611202600083018661107e565b61120f602083018561107e565b61121c60408301846111c3565b949350505050565b6000602082019050818103600083015261123d816110ab565b9050919050565b6000602082019050818103600083015261125d816110ce565b9050919050565b6000602082019050818103600083015261127d816110f1565b9050919050565b6000602082019050818103600083015261129d81611114565b9050919050565b600060208201905081810360008301526112bd81611137565b9050919050565b600060208201905081810360008301526112dd8161115a565b9050919050565b600060208201905081810360008301526112fd8161117d565b9050919050565b6000602082019050818103600083015261131d816111a0565b9050919050565b600060208201905061133960008301846111c3565b92915050565b600060c08201905061135460008301896111c3565b611361602083018861109c565b61136e60408301876111c3565b61137b60608301866111c3565b611388608083018561106f565b61139560a083018461108d565b979650505050505050565b60006060820190506113b560008301866111c3565b6113c260208301856111c3565b6113cf60408301846111c3565b949350505050565b600082825260208201905092915050565b60006113f38261155f565b91506113fe8361155f565b9250827fffffffffffffffffffffffffffffffffffffffffffffffffffffffffffffffff03821115611433576114326115d6565b5b828201905092915050565b60006114498261155f565b91506114548361155f565b92508261146457611463611605565b5b828204905092915050565b600061147a8261155f565b91506114858361155f565b9250817fffffffffffffffffffffffffffffffffffffffffffffffffffffffffffffffff04831182151516156114be576114bd6115d6565b5b828202905092915050565b60006114d48261155f565b91506114df8361155f565b9250828210156114f2576114f16115d6565b5b828203905092915050565b60006115088261153f565b9050919050565b600061151a8261153f565b9050919050565b60008115159050919050565b6000611538826114fd565b9050919050565b600073ffffffffffffffffffffffffffffffffffffffff82169050919050565b6000819050919050565b60006115748261157b565b9050919050565b60006115868261153f565b9050919050565b60006115988261155f565b91507fffffffffffffffffffffffffffffffffffffffffffffffffffffffffffffffff8214156115cb576115ca6115d6565b5b600182019050919050565b7f4e487b7100000000000000000000000000000000000000000000000000000000600052601160045260246000fd5b7f4e487b7100000000000000000000000000000000000000000000000000000000600052601260045260246000fd5b7f4974656d20756e6c697374656400000000000000000000000000000000000000600082015250565b7f5072696365206d7573742062652067726561746572207468616e205a65726f00600082015250565b7f4f6e6c79207468652073656c6c65722063616e206368616e676520746865205060008201527f7269636500000000000000000000000000000000000000000000000000000000602082015250565b7f4e6f7420656e6f75676820657468657220746f20636f766572206974656d207060008201527f7269636520616e64206d61726b65742066656500000000000000000000000000602082015250565b7f4974656d20646f65736e27742065786973740000000000000000000000000000600082015250565b7f4f6e6c79207468652073656c6c65722063616e20756e6c69737420746865206960008201527f74656d0000000000000000000000000000000000000000000000000000000000602082015250565b7f5265656e7472616e637947756172643a207265656e7472616e742063616c6c00600082015250565b7f4974656d20616c726561647920736f6c64000000000000000000000000000000600082015250565b6117f78161152d565b811461180257600080fd5b50565b61180e8161155f565b811461181957600080fd5b5056fea26469706673582212208a933ddd43253a6b8b0cae9dd948cc5c959be34f619d80dff7e01127bcf4c9d664736f6c63430008040033",
  "linkReferences": {},
  "deployedLinkReferences": {}
}