{
  "_format": "hh-sol-artifact-1",
  "contractName": "Legitize",
  "sourceName": "nft/contracts/Legitize.sol",
  "abi": [
    {
      "inputs": [
        {
          "internalType": "uint256",
          "name": "_feePercent",
          "type": "uint256"
        }
      ],
      "stateMutability": "nonpayable",
      "type": "constructor"
    },
    {
      "anonymous": false,
      "inputs": [
        {
          "indexed": false,
          "internalType": "uint256",
          "name": "itemId",
          "type": "uint256"
        },
        {
          "indexed": true,
          "internalType": "address",
          "name": "nft",
          "type": "address"
        },
        {
          "indexed": false,
          "internalType": "uint256",
          "name": "tokenId",
          "type": "uint256"
        },
        {
          "indexed": false,
          "internalType": "uint256",
          "name": "price",
          "type": "uint256"
        },
        {
          "indexed": true,
          "internalType": "address",
          "name": "seller",
          "type": "address"
        },
        {
          "indexed": true,
          "internalType": "address",
          "name": "buyer",
          "type": "address"
        }
      ],
      "name": "Bought",
      "type": "event"
    },
    {
      "anonymous": false,
      "inputs": [
        {
          "indexed": false,
          "internalType": "uint256",
          "name": "itemId",
          "type": "uint256"
        },
        {
          "indexed": true,
          "internalType": "address",
          "name": "nft",
          "type": "address"
        },
        {
          "indexed": false,
          "internalType": "uint256",
          "name": "tokenId",
          "type": "uint256"
        },
        {
          "indexed": false,
          "internalType": "uint256",
          "name": "price",
          "type": "uint256"
        },
        {
          "indexed": true,
          "internalType": "address",
          "name": "seller",
          "type": "address"
        }
      ],
      "name": "Offered",
      "type": "event"
    },
    {
      "inputs": [
        {
          "internalType": "uint256",
          "name": "",
          "type": "uint256"
        }
      ],
      "name": "Items",
      "outputs": [
        {
          "internalType": "uint256",
          "name": "itemId",
          "type": "uint256"
        },
        {
          "internalType": "contract IERC721",
          "name": "nft",
          "type": "address"
        },
        {
          "internalType": "uint256",
          "name": "tokenId",
          "type": "uint256"
        },
        {
          "internalType": "uint256",
          "name": "price",
          "type": "uint256"
        },
        {
          "internalType": "address payable",
          "name": "seller",
          "type": "address"
        },
        {
          "internalType": "bool",
          "name": "sold",
          "type": "bool"
        }
      ],
      "stateMutability": "view",
      "type": "function"
    },
    {
      "inputs": [
        {
          "internalType": "uint256",
          "name": "_itemId",
          "type": "uint256"
        }
      ],
      "name": "buyItem",
      "outputs": [],
      "stateMutability": "payable",
      "type": "function"
    },
    {
      "inputs": [],
      "name": "feeAccount",
      "outputs": [
        {
          "internalType": "address payable",
          "name": "",
          "type": "address"
        }
      ],
      "stateMutability": "view",
      "type": "function"
    },
    {
      "inputs": [],
      "name": "feePercent",
      "outputs": [
        {
          "internalType": "uint256",
          "name": "",
          "type": "uint256"
        }
      ],
      "stateMutability": "view",
      "type": "function"
    },
    {
      "inputs": [
        {
          "internalType": "uint256",
          "name": "_itemId",
          "type": "uint256"
        }
      ],
      "name": "getTotalPrice",
      "outputs": [
        {
          "internalType": "uint256",
          "name": "",
          "type": "uint256"
        }
      ],
      "stateMutability": "view",
      "type": "function"
    },
    {
      "inputs": [],
      "name": "itemCount",
      "outputs": [
        {
          "internalType": "uint256",
          "name": "",
          "type": "uint256"
        }
      ],
      "stateMutability": "view",
      "type": "function"
    },
    {
      "inputs": [
        {
          "internalType": "contract IERC721",
          "name": "_nft",
          "type": "address"
        },
        {
          "internalType": "uint256",
          "name": "_tokenId",
          "type": "uint256"
        },
        {
          "internalType": "uint256",
          "name": "_price",
          "type": "uint256"
        }
      ],
      "name": "listItem",
      "outputs": [],
      "stateMutability": "nonpayable",
      "type": "function"
    }
  ],
  "bytecode": "0x60c060405234801561001057600080fd5b5060405161119d38038061119d83398181016040528101906100329190610094565b60016000819055503373ffffffffffffffffffffffffffffffffffffffff1660808173ffffffffffffffffffffffffffffffffffffffff1660601b815250508060a08181525050506100de565b60008151905061008e816100c7565b92915050565b6000602082840312156100a657600080fd5b60006100b48482850161007f565b91505092915050565b6000819050919050565b6100d0816100bd565b81146100db57600080fd5b50565b60805160601c60a0516110896101146000396000818161026f0152610569015260008181610245015261078f01526110896000f3fe6080604052600436106100705760003560e01c80637fd6f15c1161004e5780637fd6f15c1461010d57806389bfd38f14610138578063ca7dd37514610161578063e7fb74c71461019e57610070565b806317b47cc41461007557806365e17c9d146100b75780636bfb0d01146100e2575b600080fd5b34801561008157600080fd5b5061009c60048036038101906100979190610a0d565b6101ba565b6040516100ae96959493929190610c3d565b60405180910390f35b3480156100c357600080fd5b506100cc610243565b6040516100d99190610b30565b60405180910390f35b3480156100ee57600080fd5b506100f7610267565b6040516101049190610c22565b60405180910390f35b34801561011957600080fd5b5061012261026d565b60405161012f9190610c22565b60405180910390f35b34801561014457600080fd5b5061015f600480360381019061015a91906109be565b610291565b005b34801561016d57600080fd5b5061018860048036038101906101839190610a0d565b610563565b6040516101959190610c22565b60405180910390f35b6101b860048036038101906101b39190610a0d565b6105c6565b005b60026020528060005260406000206000915090508060000154908060010160009054906101000a900473ffffffffffffffffffffffffffffffffffffffff16908060020154908060030154908060040160009054906101000a900473ffffffffffffffffffffffffffffffffffffffff16908060040160149054906101000a900460ff16905086565b7f000000000000000000000000000000000000000000000000000000000000000081565b60015481565b7f000000000000000000000000000000000000000000000000000000000000000081565b600260005414156102d7576040517f08c379a00000000000000000000000000000000000000000000000000000000081526004016102ce90610be2565b60405180910390fd5b600260008190555060008111610322576040517f08c379a000000000000000000000000000000000000000000000000000000000815260040161031990610b82565b60405180910390fd5b6001600081548092919061033590610e8b565b91905055508273ffffffffffffffffffffffffffffffffffffffff166323b872dd3330856040518463ffffffff1660e01b815260040161037793929190610b4b565b600060405180830381600087803b15801561039157600080fd5b505af11580156103a5573d6000803e3d6000fd5b505050506040518060c0016040528060015481526020018473ffffffffffffffffffffffffffffffffffffffff1681526020018381526020018281526020013373ffffffffffffffffffffffffffffffffffffffff168152602001600015158152506002600060015481526020019081526020016000206000820151816000015560208201518160010160006101000a81548173ffffffffffffffffffffffffffffffffffffffff021916908373ffffffffffffffffffffffffffffffffffffffff160217905550604082015181600201556060820151816003015560808201518160040160006101000a81548173ffffffffffffffffffffffffffffffffffffffff021916908373ffffffffffffffffffffffffffffffffffffffff16021790555060a08201518160040160146101000a81548160ff0219169083151502179055509050503373ffffffffffffffffffffffffffffffffffffffff168373ffffffffffffffffffffffffffffffffffffffff167f655a0cf9c8db81512be9a76dc1c5ae5380b8816ce6ad659cd61b715e2999d59a600154858560405161054e93929190610c9e565b60405180910390a36001600081905550505050565b600060647f000000000000000000000000000000000000000000000000000000000000000060646105949190610ce6565b60026000858152602001908152602001600020600301546105b59190610d6d565b6105bf9190610d3c565b9050919050565b6002600054141561060c576040517f08c379a000000000000000000000000000000000000000000000000000000000815260040161060390610be2565b60405180910390fd5b6002600081905550600061061f82610563565b9050600060026000848152602001908152602001600020905060008311801561064a57506001548311155b610689576040517f08c379a000000000000000000000000000000000000000000000000000000000815260040161068090610bc2565b60405180910390fd5b813410156106cc576040517f08c379a00000000000000000000000000000000000000000000000000000000081526004016106c390610ba2565b60405180910390fd5b8060040160149054906101000a900460ff161561071e576040517f08c379a000000000000000000000000000000000000000000000000000000000815260040161071590610c02565b60405180910390fd5b8060040160009054906101000a900473ffffffffffffffffffffffffffffffffffffffff1673ffffffffffffffffffffffffffffffffffffffff166108fc82600301549081150290604051600060405180830381858888f1935050505015801561078c573d6000803e3d6000fd5b507f000000000000000000000000000000000000000000000000000000000000000073ffffffffffffffffffffffffffffffffffffffff166108fc8260030154846107d79190610dc7565b9081150290604051600060405180830381858888f19350505050158015610802573d6000803e3d6000fd5b5060018160040160146101000a81548160ff0219169083151502179055508060010160009054906101000a900473ffffffffffffffffffffffffffffffffffffffff1673ffffffffffffffffffffffffffffffffffffffff166323b872dd303384600201546040518463ffffffff1660e01b815260040161088593929190610b4b565b600060405180830381600087803b15801561089f57600080fd5b505af11580156108b3573d6000803e3d6000fd5b505050503373ffffffffffffffffffffffffffffffffffffffff168160040160009054906101000a900473ffffffffffffffffffffffffffffffffffffffff1673ffffffffffffffffffffffffffffffffffffffff168260010160009054906101000a900473ffffffffffffffffffffffffffffffffffffffff1673ffffffffffffffffffffffffffffffffffffffff167f8b4c9c8a607d67b321582dd8461041b1dc2ceeca70c8b7f37f8e02095cf2e76d868560020154866003015460405161097f93929190610c9e565b60405180910390a45050600160008190555050565b6000813590506109a381611025565b92915050565b6000813590506109b88161103c565b92915050565b6000806000606084860312156109d357600080fd5b60006109e186828701610994565b93505060206109f2868287016109a9565b9250506040610a03868287016109a9565b9150509250925092565b600060208284031215610a1f57600080fd5b6000610a2d848285016109a9565b91505092915050565b610a3f81610e0d565b82525050565b610a4e81610dfb565b82525050565b610a5d81610e1f565b82525050565b610a6c81610e67565b82525050565b6000610a7f601f83610cd5565b9150610a8a82610f32565b602082019050919050565b6000610aa2603383610cd5565b9150610aad82610f5b565b604082019050919050565b6000610ac5601283610cd5565b9150610ad082610faa565b602082019050919050565b6000610ae8601f83610cd5565b9150610af382610fd3565b602082019050919050565b6000610b0b601183610cd5565b9150610b1682610ffc565b602082019050919050565b610b2a81610e5d565b82525050565b6000602082019050610b456000830184610a36565b92915050565b6000606082019050610b606000830186610a45565b610b6d6020830185610a45565b610b7a6040830184610b21565b949350505050565b60006020820190508181036000830152610b9b81610a72565b9050919050565b60006020820190508181036000830152610bbb81610a95565b9050919050565b60006020820190508181036000830152610bdb81610ab8565b9050919050565b60006020820190508181036000830152610bfb81610adb565b9050919050565b60006020820190508181036000830152610c1b81610afe565b9050919050565b6000602082019050610c376000830184610b21565b92915050565b600060c082019050610c526000830189610b21565b610c5f6020830188610a63565b610c6c6040830187610b21565b610c796060830186610b21565b610c866080830185610a36565b610c9360a0830184610a54565b979650505050505050565b6000606082019050610cb36000830186610b21565b610cc06020830185610b21565b610ccd6040830184610b21565b949350505050565b600082825260208201905092915050565b6000610cf182610e5d565b9150610cfc83610e5d565b9250827fffffffffffffffffffffffffffffffffffffffffffffffffffffffffffffffff03821115610d3157610d30610ed4565b5b828201905092915050565b6000610d4782610e5d565b9150610d5283610e5d565b925082610d6257610d61610f03565b5b828204905092915050565b6000610d7882610e5d565b9150610d8383610e5d565b9250817fffffffffffffffffffffffffffffffffffffffffffffffffffffffffffffffff0483118215151615610dbc57610dbb610ed4565b5b828202905092915050565b6000610dd282610e5d565b9150610ddd83610e5d565b925082821015610df057610def610ed4565b5b828203905092915050565b6000610e0682610e3d565b9050919050565b6000610e1882610e3d565b9050919050565b60008115159050919050565b6000610e3682610dfb565b9050919050565b600073ffffffffffffffffffffffffffffffffffffffff82169050919050565b6000819050919050565b6000610e7282610e79565b9050919050565b6000610e8482610e3d565b9050919050565b6000610e9682610e5d565b91507fffffffffffffffffffffffffffffffffffffffffffffffffffffffffffffffff821415610ec957610ec8610ed4565b5b600182019050919050565b7f4e487b7100000000000000000000000000000000000000000000000000000000600052601160045260246000fd5b7f4e487b7100000000000000000000000000000000000000000000000000000000600052601260045260246000fd5b7f5072696365206d7573742062652067726561746572207468616e205a65726f00600082015250565b7f4e6f7420656e6f75676820657468657220746f20636f766572206974656d207060008201527f7269636520616e64206d61726b65742066656500000000000000000000000000602082015250565b7f4974656d20646f65736e27742065786973740000000000000000000000000000600082015250565b7f5265656e7472616e637947756172643a207265656e7472616e742063616c6c00600082015250565b7f4974656d20616c726561647920736f6c64000000000000000000000000000000600082015250565b61102e81610e2b565b811461103957600080fd5b50565b61104581610e5d565b811461105057600080fd5b5056fea264697066735822122005e6c44ea97b6cbd36ce23246813ba45de0d6398d5437c080fecb1b0bca8991f64736f6c63430008040033",
  "linkReferences": {},
  "deployedLinkReferences": {}
}